:020000040000fa
:08000000020c040000000000e6
:020000040000fa
:10000800ca0c0000ca0c0000ca0c0000ca0c000090
:10001800ca0c0000ca0c0000ca0c0000ca0c000080
:10002800ca0c0000ca0c0000ca0c0000ca0c000070
:10003800ca0c0000ca0c0000ca0c0000ca0c000060
:020000040000fa
:020000040000fa
:1018000001000000ef4121000e7f22000e01880040
:1018100000000000000020000000e0000200320094
:101820000001200020028800140007005b00070070
:101830000000e00003003a00a0d9200001002000d1
:10184000020037000000200001002000810f70001e
:101850000100320014000700000020000000e0003a
:10186000020032000000020000000000540d0200df
:10187000000000000040da000000fe004440a90023
:10188000000120000000e000030032000000200002
:10189000a00188004440a800000006008a1f7800cc
:1018a0008b1f7800000006009101880080047800fa
:1018b0000000eb001a003700e284440032a0b400bc
:1018c0009905ba00e284440032a0b4009906ba0037
:1018d000e284440032a0b4000006eb00476fde0053
:1018e000fd07b200636ce10003003a00ebff070064
:1018f0000000eb000a003700606ce10004003a00d1
:10190000005deb008b05e900fdff3e0004003700a1
:101910006168e100010032000086eb000b00070067
:1019200019c7ba001905ba000e04e00003003a0016
:101930000a00e000e0ff3a0000000600fe07b200e7
:101940009e0188008a047800f5ff3700395dba00ef
:101950008b05e9000c003200295dba008b05e90017
:10196000080032000c00e00003003a00e28444006a
:1019700032a0b400f5ff370019ddba008b05e9008d
:10198000faff3a008904e800e184440032a0b40080
:10199000000006000040da000000fe000000050024
:020000040000fa
:1019a0003f0600005b4f0000666d00007d070000f1
:1019b0007f6f0000777c0000395e000079710000c5
:020000040000fa
:1019c0000000fa00213a8000f08f2f0000806000b4
:1019d0000090a000203a88000080fa000000060075
:1019e0000000fa0061198000f0ff21000100700082
:1019f0006019880000002f004016880061168000e2
:101a000000002f0000806000601688000080fa004f
:101a1000000006000000fa006116800000002f00a0
:101a2000008060006016880000c8bf000080fb00d6
:101a300068004000110020000008dd0080007800f0
:101a400060168000010070006016880000c8bf00aa
:101a50000080fb0021802000614078008080fb0036
:101a600060168000010070006016880000c8bf008a
:101a70000080fb008000e80030002800008060004b
:101a80000000e00004003d000000e900c1ff2f005d
:101a9000008070000000e8000040780000e8b70017
:101aa0000080fa00000006000000fa00c4ff0700f2
:101ab000cbff0700c0cd2800904078002080200098
:101ac000014878003080200081c7b30001487800c9
:101ad0004080200001c5b3000148780050802000fc
:101ae00081c3b30001487800caff070000712200db
:0c1af0000100200001000700fbff370090
:020000040000fa
:101afc00f03fb1000180b10006003500ee03090093
:101b0c0000000000403fb1000180b100fbff3d0030
:101b1c001000b000203fb00002003500008009002a
:081b2c000000000000000600ab
:020000040000fa
:101b3400020800000400000000000000000800008b
:0c1b440002000000000000000000000093
:020000040000fa
:020000040001f9
:0407f8004f7f00002f
:020000040000fa
:020000040001f9
:0407fc006a1d000072
:00000001FF
